{
  "contractName": "DataValidationReport",
  "abi": [
    {
      "anonymous": false,
      "inputs": [
        {
          "indexed": true,
          "internalType": "string",
          "name": "reportId",
          "type": "string"
        },
        {
          "indexed": false,
          "internalType": "string",
          "name": "datasetName",
          "type": "string"
        },
        {
          "indexed": false,
          "internalType": "string",
          "name": "reportHash",
          "type": "string"
        },
        {
          "indexed": false,
          "internalType": "string",
          "name": "urlHash",
          "type": "string"
        },
        {
          "indexed": false,
          "internalType": "string",
          "name": "version",
          "type": "string"
        },
        {
          "indexed": false,
          "internalType": "string",
          "name": "owner",
          "type": "string"
        },
        {
          "indexed": false,
          "internalType": "string",
          "name": "license",
          "type": "string"
        },
        {
          "indexed": false,
          "internalType": "uint256",
          "name": "timestamp",
          "type": "uint256"
        }
      ],
      "name": "ReportStored",
      "type": "event"
    },
    {
      "inputs": [
        {
          "internalType": "string",
          "name": "_reportId",
          "type": "string"
        },
        {
          "internalType": "string",
          "name": "_datasetName",
          "type": "string"
        },
        {
          "internalType": "string",
          "name": "_reportHash",
          "type": "string"
        },
        {
          "internalType": "string",
          "name": "_urlHash",
          "type": "string"
        },
        {
          "internalType": "string",
          "name": "_version",
          "type": "string"
        },
        {
          "internalType": "string",
          "name": "_owner",
          "type": "string"
        },
        {
          "internalType": "string",
          "name": "_license",
          "type": "string"
        }
      ],
      "name": "storeReport",
      "outputs": [],
      "stateMutability": "nonpayable",
      "type": "function"
    },
    {
      "inputs": [
        {
          "internalType": "string",
          "name": "_reportId",
          "type": "string"
        }
      ],
      "name": "getReport",
      "outputs": [
        {
          "internalType": "string",
          "name": "datasetName",
          "type": "string"
        },
        {
          "internalType": "string",
          "name": "reportHash",
          "type": "string"
        },
        {
          "internalType": "string",
          "name": "urlHash",
          "type": "string"
        },
        {
          "internalType": "string",
          "name": "version",
          "type": "string"
        },
        {
          "internalType": "string",
          "name": "owner",
          "type": "string"
        },
        {
          "internalType": "string",
          "name": "license",
          "type": "string"
        },
        {
          "internalType": "uint256",
          "name": "timestamp",
          "type": "uint256"
        }
      ],
      "stateMutability": "view",
      "type": "function",
      "constant": true
    }
  ],
  "bytecode": "0x608060405234801561001057600080fd5b50610c99806100206000396000f3fe608060405234801561001057600080fd5b50600436106100365760003560e01c806312e63d711461003b578063771d4b6414610071575b600080fd5b6100556004803603810190610050919061077e565b61008d565b6040516100689796959493929190610a15565b60405180910390f35b61008b600480360381019061008691906107bf565b610477565b005b6060806060806060806000806000896040516100a991906109fe565b90815260200160405180910390206040518060e00160405290816000820180546100d290610bc2565b80601f01602080910402602001604051908101604052809291908181526020018280546100fe90610bc2565b801561014b5780601f106101205761010080835404028352916020019161014b565b820191906000526020600020905b81548152906001019060200180831161012e57829003601f168201915b5050505050815260200160018201805461016490610bc2565b80601f016020809104026020016040519081016040528092919081815260200182805461019090610bc2565b80156101dd5780601f106101b2576101008083540402835291602001916101dd565b820191906000526020600020905b8154815290600101906020018083116101c057829003601f168201915b505050505081526020016002820180546101f690610bc2565b80601f016020809104026020016040519081016040528092919081815260200182805461022290610bc2565b801561026f5780601f106102445761010080835404028352916020019161026f565b820191906000526020600020905b81548152906001019060200180831161025257829003601f168201915b5050505050815260200160038201805461028890610bc2565b80601f01602080910402602001604051908101604052809291908181526020018280546102b490610bc2565b80156103015780601f106102d657610100808354040283529160200191610301565b820191906000526020600020905b8154815290600101906020018083116102e457829003601f168201915b5050505050815260200160048201805461031a90610bc2565b80601f016020809104026020016040519081016040528092919081815260200182805461034690610bc2565b80156103935780601f1061036857610100808354040283529160200191610393565b820191906000526020600020905b81548152906001019060200180831161037657829003601f168201915b505050505081526020016005820180546103ac90610bc2565b80601f01602080910402602001604051908101604052809291908181526020018280546103d890610bc2565b80156104255780601f106103fa57610100808354040283529160200191610425565b820191906000526020600020905b81548152906001019060200180831161040857829003601f168201915b505050505081526020016006820154815250509050806000015181602001518260400151836060015184608001518560a001518660c00151975097509750975097509750975050919395979092949650565b60008751116104bb576040517f08c379a00000000000000000000000000000000000000000000000000000000081526004016104b290610ace565b60405180910390fd5b60008551116104ff576040517f08c379a00000000000000000000000000000000000000000000000000000000081526004016104f690610aae565b60405180910390fd5b60006040518060e001604052808881526020018781526020018681526020018581526020018481526020018381526020014281525090508060008960405161054791906109fe565b90815260200160405180910390206000820151816000019080519060200190610571929190610673565b50602082015181600101908051906020019061058e929190610673565b5060408201518160020190805190602001906105ab929190610673565b5060608201518160030190805190602001906105c8929190610673565b5060808201518160040190805190602001906105e5929190610673565b5060a0820151816005019080519060200190610602929190610673565b5060c082015181600601559050508760405161061e91906109fe565b60405180910390207f1854bb422c55de7aab23c438c7eaa9e4487def3735d9d37c15a09d122fd9152d888888888888426040516106619796959493929190610a15565b60405180910390a25050505050505050565b82805461067f90610bc2565b90600052602060002090601f0160209004810192826106a157600085556106e8565b82601f106106ba57805160ff19168380011785556106e8565b828001600101855582156106e8579182015b828111156106e75782518255916020019190600101906106cc565b5b5090506106f591906106f9565b5090565b5b808211156107125760008160009055506001016106fa565b5090565b600061072961072484610b1f565b610aee565b90508281526020810184848401111561074157600080fd5b61074c848285610b80565b509392505050565b600082601f83011261076557600080fd5b8135610775848260208601610716565b91505092915050565b60006020828403121561079057600080fd5b600082013567ffffffffffffffff8111156107aa57600080fd5b6107b684828501610754565b91505092915050565b600080600080600080600060e0888a0312156107da57600080fd5b600088013567ffffffffffffffff8111156107f457600080fd5b6108008a828b01610754565b975050602088013567ffffffffffffffff81111561081d57600080fd5b6108298a828b01610754565b965050604088013567ffffffffffffffff81111561084657600080fd5b6108528a828b01610754565b955050606088013567ffffffffffffffff81111561086f57600080fd5b61087b8a828b01610754565b945050608088013567ffffffffffffffff81111561089857600080fd5b6108a48a828b01610754565b93505060a088013567ffffffffffffffff8111156108c157600080fd5b6108cd8a828b01610754565b92505060c088013567ffffffffffffffff8111156108ea57600080fd5b6108f68a828b01610754565b91505092959891949750929550565b600061091082610b4f565b61091a8185610b5a565b935061092a818560208601610b8f565b61093381610c52565b840191505092915050565b600061094982610b4f565b6109538185610b6b565b9350610963818560208601610b8f565b80840191505092915050565b600061097c601783610b5a565b91507f5265706f727420686173682069732072657175697265640000000000000000006000830152602082019050919050565b60006109bc601583610b5a565b91507f5265706f727420494420697320726571756972656400000000000000000000006000830152602082019050919050565b6109f881610b76565b82525050565b6000610a0a828461093e565b915081905092915050565b600060e0820190508181036000830152610a2f818a610905565b90508181036020830152610a438189610905565b90508181036040830152610a578188610905565b90508181036060830152610a6b8187610905565b90508181036080830152610a7f8186610905565b905081810360a0830152610a938185610905565b9050610aa260c08301846109ef565b98975050505050505050565b60006020820190508181036000830152610ac78161096f565b9050919050565b60006020820190508181036000830152610ae7816109af565b9050919050565b6000604051905081810181811067ffffffffffffffff82111715610b1557610b14610c23565b5b8060405250919050565b600067ffffffffffffffff821115610b3a57610b39610c23565b5b601f19601f8301169050602081019050919050565b600081519050919050565b600082825260208201905092915050565b600081905092915050565b6000819050919050565b82818337600083830152505050565b60005b83811015610bad578082015181840152602081019050610b92565b83811115610bbc576000848401525b50505050565b60006002820490506001821680610bda57607f821691505b60208210811415610bee57610bed610bf4565b5b50919050565b7f4e487b7100000000000000000000000000000000000000000000000000000000600052602260045260246000fd5b7f4e487b7100000000000000000000000000000000000000000000000000000000600052604160045260246000fd5b6000601f19601f830116905091905056fea26469706673582212205870e75ab851a71b969ce61ffa6dd09b84d0e5432c7e125233fa7d8a22098e2264736f6c63430008000033",
  "immutableReferences": {},
  "source": "// SPDX-License-Identifier: MIT\r\npragma solidity ^0.8.0;\r\n\r\ncontract DataValidationReport {\r\n    struct Report {\r\n        string datasetName;\r\n        string reportHash;\r\n        string urlHash;\r\n        string version;\r\n        string owner;\r\n        string license;\r\n        uint timestamp;\r\n    }\r\n\r\n    mapping(string => Report) private reports;\r\n\r\n    event ReportStored(\r\n        string indexed reportId,\r\n        string datasetName,\r\n        string reportHash,\r\n        string urlHash,\r\n        string version,\r\n        string owner,\r\n        string license,\r\n        uint timestamp\r\n    );\r\n\r\n    function storeReport(\r\n        string memory _reportId,\r\n        string memory _datasetName,\r\n        string memory _reportHash,\r\n        string memory _urlHash,\r\n        string memory _version,\r\n        string memory _owner,\r\n        string memory _license\r\n    ) public {\r\n        require(bytes(_reportId).length > 0, \"Report ID is required\");\r\n        require(bytes(_reportHash).length > 0, \"Report hash is required\");\r\n\r\n        Report memory newReport = Report({\r\n            datasetName: _datasetName,\r\n            reportHash: _reportHash,\r\n            urlHash: _urlHash,\r\n            version: _version,\r\n            owner: _owner,\r\n            license: _license,\r\n            timestamp: block.timestamp\r\n        });\r\n\r\n        reports[_reportId] = newReport;\r\n\r\n        emit ReportStored(_reportId, _datasetName, _reportHash, _urlHash, _version, _owner, _license, block.timestamp);\r\n    }\r\n\r\n    function getReport(string memory _reportId) public view returns (\r\n        string memory datasetName,\r\n        string memory reportHash,\r\n        string memory urlHash,\r\n        string memory version,\r\n        string memory owner,\r\n        string memory license,\r\n        uint timestamp\r\n    ) {\r\n        Report memory report = reports[_reportId];\r\n        return (\r\n            report.datasetName,\r\n            report.reportHash,\r\n            report.urlHash,\r\n            report.version,\r\n            report.owner,\r\n            report.license,\r\n            report.timestamp\r\n        );\r\n    }\r\n}\r\n",
  "sourcePath": "C:\\Users\\sunda\\OneDrive\\Desktop\\Dexchange AI\\contracts\\DataValidationReport.sol",
  "compiler": {
    "name": "solc",
    "version": "0.8.0+commit.c7dfd78e.Emscripten.clang"
  },
  "schemaVersion": "3.4.16",
  "updatedAt": "2024-05-26T02:24:29.220Z",
  "networkType": "ethereum",
  "devdoc": {
    "kind": "dev",
    "methods": {},
    "version": 1
  },
  "userdoc": {
    "kind": "user",
    "methods": {},
    "version": 1
  }
}